{
  "_format": "hh-sol-artifact-1",
  "contractName": "BCAServiceContract",
  "sourceName": "contracts/BCA_Service.sol",
  "abi": [
    {
      "inputs": [
        {
          "internalType": "address",
          "name": "_providerAddress",
          "type": "address"
        },
        {
          "internalType": "address",
          "name": "_tokAddress",
          "type": "address"
        },
        {
          "internalType": "uint256",
          "name": "_tickPrice",
          "type": "uint256"
        }
      ],
      "stateMutability": "nonpayable",
      "type": "constructor"
    },
    {
      "inputs": [
        {
          "internalType": "address",
          "name": "target",
          "type": "address"
        }
      ],
      "name": "AddressEmptyCode",
      "type": "error"
    },
    {
      "inputs": [
        {
          "internalType": "address",
          "name": "account",
          "type": "address"
        }
      ],
      "name": "AddressInsufficientBalance",
      "type": "error"
    },
    {
      "inputs": [],
      "name": "AlreadyStopped",
      "type": "error"
    },
    {
      "inputs": [],
      "name": "AlreadySubscribed",
      "type": "error"
    },
    {
      "inputs": [],
      "name": "FailedInnerCall",
      "type": "error"
    },
    {
      "inputs": [
        {
          "internalType": "uint256",
          "name": "minimumAmount",
          "type": "uint256"
        }
      ],
      "name": "InsufficientAmount",
      "type": "error"
    },
    {
      "inputs": [
        {
          "internalType": "uint256",
          "name": "availableBalance",
          "type": "uint256"
        }
      ],
      "name": "InsufficientBalance",
      "type": "error"
    },
    {
      "inputs": [],
      "name": "NotStarted",
      "type": "error"
    },
    {
      "inputs": [],
      "name": "ReentrancyGuardReentrantCall",
      "type": "error"
    },
    {
      "inputs": [
        {
          "internalType": "address",
          "name": "token",
          "type": "address"
        }
      ],
      "name": "SafeERC20FailedOperation",
      "type": "error"
    },
    {
      "inputs": [],
      "name": "UnAuthorized",
      "type": "error"
    },
    {
      "anonymous": false,
      "inputs": [
        {
          "indexed": false,
          "internalType": "address",
          "name": "user",
          "type": "address"
        },
        {
          "indexed": false,
          "internalType": "uint256",
          "name": "amount",
          "type": "uint256"
        }
      ],
      "name": "DepositMade",
      "type": "event"
    },
    {
      "anonymous": false,
      "inputs": [
        {
          "indexed": false,
          "internalType": "address",
          "name": "recipient",
          "type": "address"
        },
        {
          "indexed": false,
          "internalType": "uint256",
          "name": "amount",
          "type": "uint256"
        }
      ],
      "name": "Retracted",
      "type": "event"
    },
    {
      "anonymous": false,
      "inputs": [
        {
          "indexed": false,
          "internalType": "uint256",
          "name": "ticks",
          "type": "uint256"
        }
      ],
      "name": "ServiceStopped",
      "type": "event"
    },
    {
      "anonymous": false,
      "inputs": [
        {
          "indexed": false,
          "internalType": "address",
          "name": "recipient",
          "type": "address"
        },
        {
          "indexed": false,
          "internalType": "uint256",
          "name": "amount",
          "type": "uint256"
        }
      ],
      "name": "Withdrawn",
      "type": "event"
    },
    {
      "inputs": [],
      "name": "balanceProvider",
      "outputs": [
        {
          "internalType": "uint256",
          "name": "",
          "type": "uint256"
        }
      ],
      "stateMutability": "view",
      "type": "function"
    },
    {
      "inputs": [],
      "name": "balanceUser",
      "outputs": [
        {
          "internalType": "uint256",
          "name": "",
          "type": "uint256"
        }
      ],
      "stateMutability": "view",
      "type": "function"
    },
    {
      "inputs": [],
      "name": "deposit",
      "outputs": [
        {
          "internalType": "uint256",
          "name": "",
          "type": "uint256"
        }
      ],
      "stateMutability": "view",
      "type": "function"
    },
    {
      "inputs": [],
      "name": "endTime",
      "outputs": [
        {
          "internalType": "uint256",
          "name": "",
          "type": "uint256"
        }
      ],
      "stateMutability": "view",
      "type": "function"
    },
    {
      "inputs": [
        {
          "internalType": "uint256",
          "name": "amount",
          "type": "uint256"
        }
      ],
      "name": "makeDeposit",
      "outputs": [],
      "stateMutability": "nonpayable",
      "type": "function"
    },
    {
      "inputs": [],
      "name": "providerAddress",
      "outputs": [
        {
          "internalType": "address",
          "name": "",
          "type": "address"
        }
      ],
      "stateMutability": "view",
      "type": "function"
    },
    {
      "inputs": [],
      "name": "retracted",
      "outputs": [
        {
          "internalType": "uint256",
          "name": "",
          "type": "uint256"
        }
      ],
      "stateMutability": "view",
      "type": "function"
    },
    {
      "inputs": [],
      "name": "setupFee",
      "outputs": [
        {
          "internalType": "uint256",
          "name": "",
          "type": "uint256"
        }
      ],
      "stateMutability": "view",
      "type": "function"
    },
    {
      "inputs": [],
      "name": "startTime",
      "outputs": [
        {
          "internalType": "uint256",
          "name": "",
          "type": "uint256"
        }
      ],
      "stateMutability": "view",
      "type": "function"
    },
    {
      "inputs": [],
      "name": "stop",
      "outputs": [],
      "stateMutability": "nonpayable",
      "type": "function"
    },
    {
      "inputs": [],
      "name": "tickPrice",
      "outputs": [
        {
          "internalType": "uint256",
          "name": "",
          "type": "uint256"
        }
      ],
      "stateMutability": "view",
      "type": "function"
    },
    {
      "inputs": [],
      "name": "tokToken",
      "outputs": [
        {
          "internalType": "contract IERC20",
          "name": "",
          "type": "address"
        }
      ],
      "stateMutability": "view",
      "type": "function"
    },
    {
      "inputs": [],
      "name": "userAddress",
      "outputs": [
        {
          "internalType": "address",
          "name": "",
          "type": "address"
        }
      ],
      "stateMutability": "view",
      "type": "function"
    },
    {
      "inputs": [
        {
          "internalType": "uint256",
          "name": "amount",
          "type": "uint256"
        }
      ],
      "name": "withdrawProvider",
      "outputs": [],
      "stateMutability": "nonpayable",
      "type": "function"
    },
    {
      "inputs": [
        {
          "internalType": "uint256",
          "name": "amount",
          "type": "uint256"
        }
      ],
      "name": "withdrawUser",
      "outputs": [],
      "stateMutability": "nonpayable",
      "type": "function"
    }
  ],
  "bytecode": "0x60e060405234801561001057600080fd5b50604051610f85380380610f8583398101604081905261002f9161006a565b60016000556001600160a01b0391821660805260a0521660c0526100a6565b80516001600160a01b038116811461006557600080fd5b919050565b60008060006060848603121561007f57600080fd5b6100888461004e565b92506100966020850161004e565b9150604084015190509250925092565b60805160a05160c051610e5c610129600039600081816101400152818161047d015281816105840152610a820152600081816101aa015281816102ac015281816102e601528181610510015281816105f4015281816107bf01526109560152600081816102110152818161037f0152818161067001526108a50152610e5c6000f3fe608060405234801561001057600080fd5b50600436106100f55760003560e01c8063a40b56b911610097578063d39f075b11610066578063d39f075b146101dd578063dab70e3c146101e6578063e4128fb3146101f9578063ff1f7f0c1461020c57600080fd5b8063a40b56b914610196578063b50bfe6a146101a5578063d0e30db0146101cc578063d25120ce146101d557600080fd5b80633197cbb6116100d35780633197cbb614610132578063706e52571461013b57806378e979251461017a5780639cf81fb31461018357600080fd5b8063059a500c146100fa57806307da68f51461010f578063229edc9e14610117575b600080fd5b61010d610108366004610d50565b610233565b005b61010d610465565b61011f610470565b6040519081526020015b60405180910390f35b61011f60045481565b6101627f000000000000000000000000000000000000000000000000000000000000000081565b6040516001600160a01b039091168152602001610129565b61011f60035481565b61010d610191366004610d50565b610571565b61011f6702c68af0bb14000081565b61011f7f000000000000000000000000000000000000000000000000000000000000000081565b61011f60015481565b61011f61072a565b61011f60025481565b61010d6101f4366004610d50565b61080f565b600554610162906001600160a01b031681565b6101627f000000000000000000000000000000000000000000000000000000000000000081565b61023b610998565b6005546001600160a01b0316158061025d57506005546001600160a01b031633145b610293576040517f5fd8a13200000000000000000000000000000000000000000000000000000000815260040160405180910390fd5b6005546001600160a01b03161580156102dc57506102d97f00000000000000000000000000000000000000000000000000000000000000006702c68af0bb140000610d98565b81105b15610351576103137f00000000000000000000000000000000000000000000000000000000000000006702c68af0bb140000610d98565b6040517f77b8dde300000000000000000000000000000000000000000000000000000000815260040161034891815260200190565b60405180910390fd5b60045415610372576040516307ccaad360e21b815260040160405180910390fd5b6103a76001600160a01b037f0000000000000000000000000000000000000000000000000000000000000000163330846109db565b80600160008282546103b99190610d98565b90915550506005546001600160a01b031661041f57600580547fffffffffffffffffffffffff0000000000000000000000000000000000000000163317905542600355600180546702c68af0bb1400009190600090610419908490610dab565b90915550505b60408051338152602081018390527fd15c9547ea5c06670c0010ce19bc32d54682a4b3801ece7f3ab0c3f17106b4bb910160405180910390a16104626001600055565b50565b61046e33610a69565b565b6000336001600160a01b037f000000000000000000000000000000000000000000000000000000000000000016146104bb5760405163be24598360e01b815260040160405180910390fd5b6003546000036104de57604051636f312cbd60e01b815260040160405180910390fd5b60006004546000036104f057426104f4565b6004545b90506000600354826105069190610dab565b90506000806105357f000000000000000000000000000000000000000000000000000000000000000084610dbe565b90506002546001546105479190610dab565b8111156105655760025460015461055e9190610dab565b9150610569565b8091505b509392505050565b610579610998565b336001600160a01b037f000000000000000000000000000000000000000000000000000000000000000016146105c25760405163be24598360e01b815260040160405180910390fd5b60006105cc610470565b9050818110156105f257604051639266535160e01b815260048101829052602401610348565b7f0000000000000000000000000000000000000000000000000000000000000000826002546001546106249190610dab565b61062e9190610dab565b101561063d5761063d33610a69565b816002600082825461064f9190610d98565b909155505060405163a9059cbb60e01b8152336004820152602481018390527f00000000000000000000000000000000000000000000000000000000000000006001600160a01b03169063a9059cbb906044016020604051808303816000875af11580156106c1573d6000803e3d6000fd5b505050506040513d601f19601f820116820180604052508101906106e59190610dd5565b5060408051338152602081018490527fbeab809f862bcac7e41d0cc40843a6c895216194f5e2ec16d9b8e41de89d2794910160405180910390a1506104626001600055565b6005546000906001600160a01b031615806107455750600354155b1561076357604051636f312cbd60e01b815260040160405180910390fd5b6005546001600160a01b0316331461078e5760405163be24598360e01b815260040160405180910390fd5b60006004546000036107a057426107a4565b6004545b90506000600354826107b69190610dab565b905060006107e47f000000000000000000000000000000000000000000000000000000000000000083610dbe565b905060015481106107f9576000935050505090565b806001546108079190610dab565b935050505090565b610817610998565b6005546001600160a01b031633146108425760405163be24598360e01b815260040160405180910390fd5b600061084c61072a565b90508181101561087257604051639266535160e01b815260048101829052602401610348565b81600160008282546108849190610dab565b909155505060405163a9059cbb60e01b8152336004820152602481018390527f00000000000000000000000000000000000000000000000000000000000000006001600160a01b03169063a9059cbb906044016020604051808303816000875af11580156108f6573d6000803e3d6000fd5b505050506040513d601f19601f8201168201806040525081019061091a9190610dd5565b5060408051338152602081018490527f7084f5476618d8e60b11ef0d7d3f06914655adb8793e28ff7f018d4c76d505d5910160405180910390a17f000000000000000000000000000000000000000000000000000000000000000061097f8383610dab565b1161098d5761098d33610a69565b506104626001600055565b6002600054036109d4576040517f3ee5aeb500000000000000000000000000000000000000000000000000000000815260040160405180910390fd5b6002600055565b604080516001600160a01b0385811660248301528416604482015260648082018490528251808303909101815260849091019091526020810180517bffffffffffffffffffffffffffffffffffffffffffffffffffffffff167f23b872dd00000000000000000000000000000000000000000000000000000000179052610a63908590610b49565b50505050565b6005546001600160a01b0382811691161480610ab657507f00000000000000000000000000000000000000000000000000000000000000006001600160a01b0316816001600160a01b0316145b610ad35760405163be24598360e01b815260040160405180910390fd5b60045415610af4576040516307ccaad360e21b815260040160405180910390fd5b426004819055600354600091610b0a9190610dab565b90507f65cd0e12bdc2afa1e1eba1853832b1c67e6318096add2681d6e020a7ed1ce8a181604051610b3d91815260200190565b60405180910390a15050565b6000610b5e6001600160a01b03841683610bca565b90508051600014158015610b83575080806020019051810190610b819190610dd5565b155b15610bc5576040517f5274afe70000000000000000000000000000000000000000000000000000000081526001600160a01b0384166004820152602401610348565b505050565b6060610bd883836000610be1565b90505b92915050565b606081471015610c1f576040517fcd786059000000000000000000000000000000000000000000000000000000008152306004820152602401610348565b600080856001600160a01b03168486604051610c3b9190610df7565b60006040518083038185875af1925050503d8060008114610c78576040519150601f19603f3d011682016040523d82523d6000602084013e610c7d565b606091505b5091509150610c8d868383610c99565b925050505b9392505050565b606082610cae57610ca982610d0e565b610c92565b8151158015610cc557506001600160a01b0384163b155b15610d07576040517f9996b3150000000000000000000000000000000000000000000000000000000081526001600160a01b0385166004820152602401610348565b5080610c92565b805115610d1e5780518082602001fd5b6040517f1425ea4200000000000000000000000000000000000000000000000000000000815260040160405180910390fd5b600060208284031215610d6257600080fd5b5035919050565b7f4e487b7100000000000000000000000000000000000000000000000000000000600052601160045260246000fd5b80820180821115610bdb57610bdb610d69565b81810381811115610bdb57610bdb610d69565b8082028115828204841417610bdb57610bdb610d69565b600060208284031215610de757600080fd5b81518015158114610c9257600080fd5b6000825160005b81811015610e185760208186018101518583015201610dfe565b50600092019182525091905056fea264697066735822122032aa9c2766f528fc8695a718eef7175cd140c854989ae79303994669d935ac9e64736f6c63430008180033",
  "linkReferences": {},
  "deployedLinkReferences": {}
}